:100000000C9462000C948A000C948A000C948A0070
:100010000C948A000C948A000C948A000C948A0038
:100020000C948A000C948A000C948A000C9461054C
:100030000C948A000C948A000C948A000C948A0018
:100040000C9417050C948A000C948A000C948A0076
:100050000C948A000C948A000C948A000C948A00F8
:100060000C941D060C948A00000000002400270058
:100070002A0000000000250028002B0000000000DE
:1000800023002600290004040404040404040202DA
:100090000202020203030303030301020408102007
:1000A0004080010204081020010204081020000012
:1000B0000008000201000003040700000000000027
:1000C00000003C0711241FBECFEFD8E0DEBFCDBF3C
:1000D00011E0A0E0B1E0E4EAF3E102C005900D9286
:1000E000A834B107D9F722E0A8E4B1E001C01D921D
:1000F000A035B207E1F710E0C2E6D0E004C02197D6
:10010000FE010E94CA09C136D107C9F70E948207C1
:100110000C94D0090C9400008F929F92AF92BF92E2
:10012000FF920F931F93CF93DF93F09041022BE048
:100130002F1508F44CC02091430208E512E0021B81
:10014000110927FD1395000F111F000F111F20919A
:100150004202C8E8D0E0C21BD10927FDD395CC0FDD
:10016000DD1FCC0FDD1F4E010D2E000CAA08BB08B1
:100170009801012E000C440B550B281939094A0926
:100180005B09DC010E94850924EB30E040E050E08F
:100190000E945B09820E931EA41EB51E8C169D063E
:1001A0002CF0E801801691060CF4E4012297CC0FA4
:1001B000DD1F2FB7F8948F2D90E0FC01EE0FFF1F8D
:1001C000E80FF91FE45EFD4FD283C1832FBFDF919B
:1001D000CF911F910F91FF90BF90AF909F908F9004
:1001E000089508950895AF92BF92CF92DF92EF9253
:1001F000FF920F931F93CF93DF936C017B018B01D1
:10020000040F151FEB015E01AE18BF08C017D10720
:1002100059F06991D601ED91FC910190F081E02DAA
:10022000C6010995892B79F7C501DF91CF911F91FF
:100230000F91FF90EF90DF90CF90BF90AF90089517
:10024000833081F028F4813099F08230A9F008954C
:100250008730A9F08830C9F08430B1F480918000F3
:100260008F7D03C0809180008F77809380000895F8
:1002700084B58F7784BD089584B58F7DFBCF809141
:10028000B0008F778093B00008958091B0008F7D8B
:10029000F9CFCF93DF93282F30E0F901E255FF4FDC
:1002A0008491F901E656FF4FD491F901EA57FF4FC7
:1002B000C491CC23A1F081110E942001EC2FF0E029
:1002C000EE0FFF1FE458FF4FA591B491EC91ED2381
:1002D00081E090E009F480E0DF91CF91089580E023
:1002E00090E0FACF1F93CF93DF93282F30E0F901EE
:1002F000E255FF4F8491F901E656FF4FD491F90181
:10030000EA57FF4FC491CC23A9F0162F81110E9408
:100310002001EC2FF0E0EE0FFF1FEE58FF4FA591EC
:10032000B4918FB7F894EC91111108C0D095DE23E9
:10033000DC938FBFDF91CF911F910895DE2BF8CF13
:10034000CF93DF9390E0FC01E656FF4F24918A574C
:100350009F4FFC0184918823D1F090E0880F991F72
:10036000FC01E859FF4FA591B491FC01EE58FF4FF5
:10037000C591D491623071F49FB7F8943C91822F6B
:10038000809583238C93E8812E2B28839FBFDF9158
:10039000CF9108958FB7F894EC912E2B2C938FBFAB
:1003A000F6CF3FB7F8948091000290910102A0919E
:1003B0000202B091030226B5A89B05C02F3F19F099
:1003C0000196A11DB11D3FBFBA2FA92F982F8827D5
:1003D000BC01CD01620F711D811D911D42E0660FB0
:1003E000771F881F991F4A95D1F708958F929F9282
:1003F000AF92BF92CF92DF92EF92FF924B015C01DE
:100400000E94D1016B017C010E94D1016C197D0910
:100410008E099F09683E734081059105A8F321E08C
:10042000821A9108A108B10888EEC80E83E0D81E90
:10043000E11CF11C81149104A104B10429F7FF907F
:10044000EF90DF90CF90BF90AF909F908F900895E6
:10045000089520918901260F3327331F213231055A
:10046000ECF42091D201FC0190E080E0243069F0AE
:1004700082E00895A09189012191AC0147595E4F16
:10048000A40FB52FB11D2C930196861798F3809178
:100490008901680F6093890180E0089581E00895E3
:1004A0001092D20181E08093D1011092AC0161E001
:1004B00082E10E94720161E083E10E947201E9EB36
:1004C000F0E080818E7F808380818D7F808388E4CF
:1004D0008093B80085E48093BC000895CF93DF93A8
:1004E00091E0909368018823B9F0C091B800D09151
:1004F000BA008091BC008A7B8093BC0060E082E1FE
:100500000E94720160E083E10E9472010E94500229
:10051000D093BA00C093B800DF91CF9108950895A9
:10052000E0910B0280910A02E81730F4F0E0E85BFA
:10053000FE4F808190E008958FEF9FEF0895909196
:100540000B0280910A022FEF3FEF981748F4E92F32
:10055000F0E0E85BFE4F208130E09F5F90930B025C
:10056000C901089580910A0290910B02891B990B91
:100570000895CF92DF92EF92FF920F931F93CF9344
:10058000DF937C01CB018A012091D801222389F0DD
:10059000EB016B01C40ED51ECC15DD0569F0699128
:1005A000D701ED91FC910190F081E02DC7010995F3
:1005B000F3CF642F0E942902C801DF91CF911F91D0
:1005C0000F91FF90EF90DF90CF900895CF93DF933E
:1005D0001F92CDB7DEB769832091D8012223F9F0AD
:1005E00020910802203258F021E030E0FC013383F2
:1005F000228390E080E00F90DF91CF910895809169
:100600000902E82FF0E0E752FE4F998190838F5F57
:10061000809309028093080281E090E0ECCF61E0D2
:10062000CE0101960E942902F7CFCF92DF92EF927E
:10063000FF920F931F93CF93DF93FC01C48121E0BE
:100640002093D801C093F901109209021092080278
:100650008385682B80E192E00E94E602D091080237
:10066000D13208F092C00E94D1016B017C018091CF
:10067000D201811165C082E08093D20181E0809334
:10068000D1018FEF8093D0011092CF01D093CE0192
:10069000A9EDB1E0EEEAF1E080E0D81385C0109258
:1006A000AD018091AD01CC0FC82BC093AD018091FD
:1006B000AC01813009F07CC01092AC010E94D101E4
:1006C0006B017C018091AD018093BB008091D401CE
:1006D0009091D501A091D601B091D701892B8A2B99
:1006E0008B2B99F00E94D1010091D4011091D5017A
:1006F0002091D6013091D7016C197D098E099F098F
:100700000617170728073907E0F18091BC0083FD21
:10071000D9CF85EC8093BC000E94D1016B017C0194
:100720008091D201823009F445C08091D0018F3F81
:1007300061F18091D001803241F18091D00125C0DA
:100740008091D4019091D501A091D601B091D701AB
:10075000892B8A2B8B2B09F48ACF0E94D10100911F
:10076000D4011091D5012091D6013091D7016C1997
:100770007D098E099F09061717072807390708F012
:1007800076CF8091D3010E946E02109209021092DE
:1007900008021092D801DF91CF911F910F91FF9025
:1007A000EF90DF90CF9008959D9191938F5F75CFDB
:1007B00085EEB0CF8091D4019091D501A091D60162
:1007C000B091D701892B8A2B8B2B09F4A9CF0E94DA
:1007D000D1010091D4011091D5012091D601309121
:1007E000D7016C197D098E099F090617170728077D
:1007F000390708F095CFC5CF90E080E008958F923B
:100800009F92AF92BF920F931F93CF93DF93CDB779
:10081000DEB7A1970FB6F894DEBF0FBECDBF19A209
:10082000423008F44AE08E010F5D1F4F842E912C58
:10083000B12CA12CA50194010E948D09E62FB901CC
:10084000CA01EA3044F5E05DD801EE938D01232B17
:10085000242B252B79F790E080E0109769F0FD01BB
:1008600001900020E9F73197AF014A1B5B0BBD01F6
:1008700084E492E00E94F300A1960FB6F894DEBFE4
:100880000FBECDBFDF91CF911F910F91BF90AF9061
:100890009F908F900895E95CD7CF0F931F93CF93CC
:1008A0008C01C62F0E9415036C2F6460C8010E9442
:1008B00015036C2F6B7FC8010E94150383EC90E039
:1008C0000197F1F7CF911F910F9108950F931F9307
:1008D000CF93DF938C01D62FC42F607F642B0E94AF
:1008E0004D0480E1D89FB00111246C2BC801DF9129
:1008F000CF911F910F910C944D0441E00E9466042A
:1009000081E090E00895CF92DF92EF92FF926C0128
:10091000990FEE08FF08F7FE16C041E06DE284E48F
:1009200092E00E94660466277727CB016C197D0947
:100930008E099F094AE00E94FF030196FF90EF9005
:10094000DF90CF9008954AE0C701B601FF90EF9085
:10095000DF90CF900C94FF03CF93DF93CDB7DEB73A
:1009600028970FB6F894DEBF0FBECDBF98E0E0E049
:10097000F1E0DE01119601900D929A95E1F79091C8
:100980004C02961708F46FEF262F30E0220F331F2A
:1009900041E050E04C0F5D1F240F351FF9016081CD
:1009A000680F606840E084E492E028960FB6F894FF
:1009B000DEBF0FBECDBFDF91CF910C94660485EDF5
:1009C0008093BC008091D4019091D501A091D60173
:1009D000B091D7010796A11DB11D23E0B695A7954B
:1009E000979587952A95D1F72091BC0024FD03C0E7
:1009F0001092D20108954091D4015091D501609197
:100A0000D6017091D701452B462B472B69F30097F0
:100A1000A105B10541F02AE22A95F1F700C001973E
:100A2000A109B109E1CF8091D3010C946E021F920C
:100A30000F920FB60F9211242F933F938F939F9392
:100A4000AF93BF938091FC019091FD01A091FE01B5
:100A5000B091FF013091FB0123E0230F2D3758F5B2
:100A60000196A11DB11D2093FB018093FC01909381
:100A7000FD01A093FE01B093FF01809100029091CF
:100A80000102A0910202B09103020196A11DB11DC5
:100A90008093000290930102A0930202B09303029C
:100AA000BF91AF919F918F913F912F910F900FBE6A
:100AB0000F901F90189526E8230F0296A11DB11DD7
:100AC000D2CF1F920F920FB60F9211242F933F9304
:100AD0004F935F936F937F938F939F93AF93BF9346
:100AE000CF93DF93EF93FF938091FA01C09140027F
:100AF000D0E087FF24C0109285001092840080917E
:100B0000FA018F5F8093FA018091FA01082E000CA0
:100B1000990B8C179D0724F48091FA018C30C4F155
:100B20008091840090918500049680349C4908F45B
:100B30007AC08091840090918500049676C080915F
:100B4000FA01082E000C990B8C179D07C4F6E09152
:100B5000FA018E2FEE0F990BFC01EE0FFF1FE80F2D
:100B6000F91FE45EFD4F808186FFC9CFE091FA0155
:100B70008E2FEE0F990BFC01EE0FFF1FE80FF91FF0
:100B8000E45EFD4F808160E08F730E947201B7CFF9
:100B90002091840030918500E091FA018E2FEE0FB4
:100BA000990BFC01EE0FFF1FE80FF91FE45EFD4FEC
:100BB00081819281820F931F909389008093880096
:100BC000E091FA018E2FEE0F990BFC01EE0FFF1F43
:100BD000E80FF91FE45EFD4F808186FF11C0E091B0
:100BE000FA018E2FEE0F990BFC01EE0FFF1FE80F9D
:100BF000F91FE45EFD4F808161E08F730E947201F6
:100C0000FF91EF91DF91CF91BF91AF919F918F9124
:100C10007F916F915F914F913F912F910F900FBEF8
:100C20000F901F90189580E49CE990938900809321
:100C300088008FEF8093FA01E3CF1F920F920FB6D7
:100C40000F9211242F933F934F935F936F937F9352
:100C50008F939F93AF93BF93EF93FF938091B900CE
:100C6000887F803609F44AC0F0F5883209F4A7C0BD
:100C700018F5803109F49BC0B8F4882309F4F9C051
:100C8000883009F494C0FF91EF91BF91AF919F918B
:100C90008F917F916F915F914F913F912F910F9025
:100CA0000FBE0F901F901895883109F488C08032CC
:100CB00051F78093D00114C0803409F49DC040F4F2
:100CC0008033B9F38833F9F68093D00185ECB0C056
:100CD000803509F485C0883509F496C0883499F6C2
:100CE0000E94DF04D0CF883909F48CC038F58837EA
:100CF00029F050F4883611F0803729F683E080938C
:100D0000D2011092AB0157C0883809F47BC08039FA
:100D100019F0803809F0B7CF8091AB01803208F02C
:100D200071C0E091AB0181E08E0F8093AB018091A7
:100D3000BB00F0E0E557FE4F80833DC0803B39F0BB
:100D4000E0F4803A09F479C0883A09F09CCF84E055
:100D50008093D20110928A0110928901E0910602DB
:100D6000F091070209958091890181110FC081E0FE
:100D7000809389011092690109C0803C09F4A6CFD3
:100D8000883C09F4A3CF883B09F07DCFE0918A012C
:100D900081E08E0F80938A01F0E0E759FE4F808159
:100DA0008093BB0090918A018091890129C0809134
:100DB000AD018093BB0085EC8093BC0064CF909123
:100DC000CF018091CE01981758F5E091CF0181E0D5
:100DD0008E0F8093CF01F0E0E255FE4F8081E9CF86
:100DE000E091CF0181E08E0F8093CF018091BB0015
:100DF000F0E0E255FE4F80839091CF018091CE01CB
:100E00009817C8F285E8D8CFE091CF0181E08E0F26
:100E10008093CF018091BB00F0E0E255FE4F8083CC
:100E20008091D10181115CCF81E08093AC0184EA93
:100E30008093BC001092D20126CF85EC8093BC0039
:100E40001092D2018091AB01803230F4E091AB017D
:100E5000F0E0E557FE4F10826091AB0170E0E09149
:100E60000402F09105028BE891E009951092AB0124
:100E70000ACF1092D00134CF1092130210921202B6
:100E800088EE93E0A0E0B0E0809314029093150206
:100E9000A0931602B09317028CE091E09093110298
:100EA0008093100210924702109246028EE191E068
:100EB000909345028093440287E28093480280E148
:100EC00080934D0282E080934E0210924F028091F7
:100ED00040028C3098F491E0980F909340028093F8
:100EE000410290E0FC01EE0FFF1FE80FF91FE45EE6
:100EF000FD4F88EB9BE09283818308958FEF809371
:100F000041020895789484B5826084BD84B581607F
:100F100084BD85B5826085BD85B5816085BD8091C4
:100F20006E00816080936E0010928100809181003C
:100F30008260809381008091810081608093810034
:100F4000809180008160809380008091B1008460F6
:100F50008093B1008091B00081608093B000809157
:100F60007A00846080937A0080917A008260809316
:100F70007A0080917A00816080937A0080917A0073
:100F8000806880937A001092C10010920B02109238
:100F90000A0210920902109208020E94500281EF88
:100FA00090E0909307028093060282EF90E0909386
:100FB0000502809304021092490280914E02823011
:100FC00018F098E09093490280934C0262E370E03D
:100FD00080E090E00E94F60160914F0284E492E08C
:100FE0000E94150368EE73E080E090E00E94F60135
:100FF00060E384E492E00E944D04CBE4D6E4CE01A9
:101000000197F1F760E384E492E00E944D04219798
:10101000F1F760E384E492E00E944D0483E592E0FE
:101020000197F1F760E284E492E00E944D04609140
:101030004902606240E084E492E00E94660484E039
:1010400080934A0240E06CE084E492E00E946604EF
:1010500040E061E084E492E00E946604CBE3DFE1DB
:10106000CE010197F1F782E080934B0240E066E009
:1010700084E492E00E94660440E062E084E492E04E
:101080000E9466042197F1F788E080934F0260E0A8
:1010900084E492E00E941503809141028C3008F0B4
:1010A00051C061E084E00E94A00180914102282F9C
:1010B00030E0F901EE0FFF1FE20FF31FE45EFD4F7A
:1010C0009081907C9460908310924202109243022F
:1010D0002CE0622F0E94BE09829FB001112430E0F3
:1010E00020E0AB01420F531FFA01EE0FFF1FE40F88
:1010F000F51FE45EFD4F908196FD16C02F5F3F4FB8
:101100002C30310571F781110FC01092800082E000
:10111000809381001092850010928400B19A809192
:101120006F00826080936F00E09141028E2F90E00B
:10113000FC01EE0FFF1FE80FF91FE45EFD4F8081F9
:101140008064808390E080E00E948C0062E083E015
:101150000E94A00162E082E00E94A00162E08EE0B5
:101160000E94A00162E08FE00E94A00100E010E078
:1011700083E00E944901892B79F480910E029091BD
:101180000F02019690930F0280930E0268EC70E0BC
:1011900080E090E00E94F60182E00E944901892BE4
:1011A000B1F4C0910E02D0910F022197D0930F029B
:1011B000C0930E0268EC70E080E090E00E94F601BF
:1011C0001C161D0624F010920F0210920E028EE0E3
:1011D0000E944901892B79F480910C0290910D02B3
:1011E000019690930D0280930C0268EC70E080E011
:1011F00090E00E94F6018FE00E944901892BB1F432
:10120000C0910C02D0910D022197D0930D02C09392
:101210000C0268EC70E080E090E00E94F6011C1681
:101220001D0624F010920D0210920C0220910C0267
:1012300030910D0280910E0290910F02281739070C
:10124000BCF190E080E00E948C0060E080E00E94B1
:10125000AC0440E150E066E271E084E492E00E9478
:10126000F30060E08AE00E94AC0480910E0290914D
:101270000F020E94830461E080E00E94AC0440E120
:1012800050E067E371E084E492E00E94F30061E0E3
:1012900088E00E94AC0480910C0290910D020E94A3
:1012A00083040115110509F463CF0E94000060CF8B
:1012B00084EB90E0C8CF052E97FB1EF400940E94AB
:1012C000720957FD07D00E948D0907FC03D04EF428
:1012D0000C94720950954095309521953F4F4F4F92
:1012E0005F4F089590958095709561957F4F8F4FD2
:1012F0009F4F08950E94AF09A59F900DB49F900D38
:10130000A49F800D911D11240895B7FF0C947A09B4
:101310000E947A09821B930B0895A1E21A2EAA1B40
:10132000BB1BFD010DC0AA1FBB1FEE1FFF1FA21795
:10133000B307E407F50720F0A21BB30BE40BF50B92
:10134000661F771F881F991F1A9469F7609570951B
:10135000809590959B01AC01BD01CF010895A29F9E
:10136000B001B39FC001A39F700D811D1124911D79
:10137000B29F700D811D1124911D0895991B79E074
:1013800004C0991F961708F0961B881F7A95C9F715
:1013900080950895EE0FFF1F0590F491E02D0994BC
:0413A000F894FFCFEF
:1013A400000040001400540000000000E602B902EE
:1013B400FC038F02B2029F029002000000007D0431
:1013C400F300FC03280247494F492048414E3A2084
:1013D4002020202020200058452056414F3A20202C
:0813E400202020202020200021
:00000001FF
